:100000000C945E000C9486000C9486000C94860080
:100010000C9486000C9486000C9486000C94860048
:100020000C9486000C9486000C9486000C94860038
:100030000C9486000C9486000C9486000C94860028
:100040000C94EF000C9486000C9486000C948600AF
:100050000C9486000C9486000C9486000C94860008
:100060000C9486000C948600000000080002010039
:100070000003040700000000000000000102040863
:100080001020408001020408102001020408102002
:10009000040404040404040402020202020203032E
:1000A0000303030300000000250028002B000000CC
:1000B0000000240027002A009400A00011241FBE85
:1000C000CFEFD8E0DEBFCDBF11E0A0E0B1E0E8E4C3
:1000D000F7E002C005900D92AE30B107D9F721E0EC
:1000E000AEE0B1E001C01D92A732B207E1F710E027
:1000F000CAEBD0E004C02297FE010E946C02C83B0C
:10010000D107C9F70E94DE000C9497030C940000FD
:1001100061E08DE00C94FA0184E191E00E94C4005A
:100120008EE091E00C94C40068EE73E084E191E00D
:100130000E94B50068EB7BE08EE091E00C94B50086
:100140008EE091E00E94A80084E191E00C94A80068
:100150002AE031E0FC013183208308952AE031E078
:10016000FC01318320830C94ED002AE031E0FC0196
:1001700031832083AB01662757FD6095762F42833C
:100180005383648375830895CF93DF93EC0161E01B
:100190008DE00E9433026A817B818C819D810E9467
:1001A0005C0160E08DE00E9433026A817B818C817A
:1001B0009D81DF91CF910C945C0108950E9496017E
:1001C0000E94DD000E948800C0E0D0E00E948C0008
:1001D0002097E1F30E940000F9CF0C9408031F92CE
:1001E0000F920FB60F9211242F933F938F939F93EB
:1001F000AF93BF9380911B0190911C01A0911D01B1
:10020000B0911E0130911A0123E0230F2D3720F405
:100210000196A11DB11D05C026E8230F0296A11D60
:10022000B11D20931A0180931B0190931C01A09390
:100230001D01B0931E0180911F0190912001A0919A
:100240002101B09122010196A11DB11D80931F01D2
:1002500090932001A0932101B0932201BF91AF910F
:100260009F918F913F912F910F900FBE0F901F90F4
:1002700018953FB7F89480911F0190912001A091AB
:100280002101B091220126B5A89B05C02F3F19F08E
:100290000196A11DB11D3FBF6627782F892F9A2F88
:1002A000620F711D811D911D42E0660F771F881F2F
:1002B000991F4A95D1F708958F929F92AF92BF925E
:1002C000CF92DF92EF92FF926B017C010E94390185
:1002D0004B015C01C114D104E104F104F1F00E946E
:1002E00069020E943901681979098A099B09683EE7
:1002F00073408105910570F321E0C21AD108E1082D
:10030000F10888EE880E83E0981EA11CB11CC11470
:10031000D104E104F10429F7DDCFFF90EF90DF90E5
:10032000CF90BF90AF909F908F900895789484B5B0
:10033000826084BD84B5816084BD85B5826085BDE1
:1003400085B5816085BDEEE6F0E0808181608083C7
:10035000E1E8F0E0108280818260808380818160AA
:100360008083E0E8F0E0808181608083E1EBF0E071
:10037000808184608083E0EBF0E080818160808315
:10038000EAE7F0E0808184608083808182608083FE
:100390008081816080838081806880831092C10029
:1003A0000895833081F028F4813099F08230A1F0F3
:1003B00008958730A9F08830B9F08430D1F4809165
:1003C00080008F7D03C0809180008F7780938000B4
:1003D000089584B58F7702C084B58F7D84BD08955C
:1003E0008091B0008F7703C08091B0008F7D8093A3
:1003F000B0000895CF93DF9390E0FC01E458FF4FE5
:100400002491FC01E057FF4F8491882349F190E04B
:10041000880F991FFC01E255FF4FA591B4918C55AF
:100420009F4FFC01C591D4919FB7611108C0F8940A
:100430008C91209582238C93888182230AC062301C
:1004400051F4F8948C91322F309583238C938881CA
:10045000822B888304C0F8948C91822B8C939FBF4D
:10046000DF91CF9108950F931F93CF93DF931F9246
:10047000CDB7DEB7282F30E0F901E859FF4F84915E
:10048000F901E458FF4F1491F901E057FF4F04912F
:100490000023C9F0882321F069830E94D10169817A
:1004A000E02FF0E0EE0FFF1FEC55FF4FA591B49148
:1004B0009FB7F8948C91611103C01095812301C0FE
:1004C000812B8C939FBF0F90DF91CF911F910F9144
:1004D00008950895EE0FFF1F0590F491E02D099403
:1004E000CF93DF938230910510F482E090E0E091A9
:1004F0002501F091260120E030E0A0E0B0E0309747
:1005000039F14081518148175907B8F04817590708
:1005100071F482819381109729F013969C938E93A6
:1005200012972CC0909326018093250127C0211596
:10053000310531F04217530718F0A901DB0101C062
:10054000EF019A01BD01DF010280F381E02DD7CFD9
:1005500021153105F9F0281B390B2430310580F4C1
:100560008A819B816115710521F0FB019383828350
:1005700004C09093260180932501FE01329644C069
:10058000FE01E20FF31F81939193225031093983C9
:1005900028833AC02091230130912401232B41F478
:1005A0002091020130910301309324012093230113
:1005B00020910001309101012115310541F42DB741
:1005C0003EB74091040150910501241B350BE09189
:1005D0002301F0912401E217F307A0F42E1B3F0B37
:1005E0002817390778F0AC014E5F5F4F24173507A5
:1005F00048F04E0F5F1F50932401409323018193D5
:10060000919302C0E0E0F0E0CF01DF91CF91089537
:10061000CF93DF93009709F487C0FC0132971382D0
:100620001282C0912501D0912601209781F420816A
:100630003181280F391F8091230190912401821765
:10064000930779F5F0932401E09323016DC0DE0157
:1006500020E030E0AE17BF0750F412964D915C9148
:1006600013979D014115510509F1DA01F3CFB383C9
:10067000A28340815181840F951F8A179B0771F4D3
:100680008D919C911197840F951F02969183808381
:1006900012968D919C911397938382832115310536
:1006A00029F4F0932601E09325013EC0D901139669
:1006B000FC93EE9312974D915D91A40FB51FEA172D
:1006C000FB0779F480819181840F951F0296D901EF
:1006D00011969C938E938281938113969C938E9313
:1006E0001297E0E0F0E08A819B81009719F0FE010B
:1006F000EC01F9CFCE01029628813981820F931F38
:1007000020912301309124012817390769F430978B
:1007100029F4109226011092250102C01382128240
:10072000D0932401C0932301DF91CF91089510E06D
:10073000CAEBD0E004C0FE010E946C022296CC3BC2
:08074000D107C9F7F894FFCFBF
:0E07480000002701800000000000A800AE00A5
:00000001FF
